{
  "address": "0x292d051941Af9270f00BD60ee416558C0d29bE2E",
  "abi": [
    {
      "inputs": [],
      "stateMutability": "nonpayable",
      "type": "constructor"
    },
    {
      "anonymous": false,
      "inputs": [
        {
          "indexed": true,
          "internalType": "address",
          "name": "account",
          "type": "address"
        },
        {
          "indexed": true,
          "internalType": "address",
          "name": "operator",
          "type": "address"
        },
        {
          "indexed": false,
          "internalType": "bool",
          "name": "approved",
          "type": "bool"
        }
      ],
      "name": "ApprovalForAll",
      "type": "event"
    },
    {
      "anonymous": false,
      "inputs": [
        {
          "indexed": true,
          "internalType": "address",
          "name": "previousOwner",
          "type": "address"
        },
        {
          "indexed": true,
          "internalType": "address",
          "name": "newOwner",
          "type": "address"
        }
      ],
      "name": "OwnershipTransferred",
      "type": "event"
    },
    {
      "anonymous": false,
      "inputs": [
        {
          "indexed": true,
          "internalType": "address",
          "name": "operator",
          "type": "address"
        },
        {
          "indexed": true,
          "internalType": "address",
          "name": "from",
          "type": "address"
        },
        {
          "indexed": true,
          "internalType": "address",
          "name": "to",
          "type": "address"
        },
        {
          "indexed": false,
          "internalType": "uint256[]",
          "name": "ids",
          "type": "uint256[]"
        },
        {
          "indexed": false,
          "internalType": "uint256[]",
          "name": "values",
          "type": "uint256[]"
        }
      ],
      "name": "TransferBatch",
      "type": "event"
    },
    {
      "anonymous": false,
      "inputs": [
        {
          "indexed": true,
          "internalType": "address",
          "name": "operator",
          "type": "address"
        },
        {
          "indexed": true,
          "internalType": "address",
          "name": "from",
          "type": "address"
        },
        {
          "indexed": true,
          "internalType": "address",
          "name": "to",
          "type": "address"
        },
        {
          "indexed": false,
          "internalType": "uint256",
          "name": "id",
          "type": "uint256"
        },
        {
          "indexed": false,
          "internalType": "uint256",
          "name": "value",
          "type": "uint256"
        }
      ],
      "name": "TransferSingle",
      "type": "event"
    },
    {
      "anonymous": false,
      "inputs": [
        {
          "indexed": false,
          "internalType": "string",
          "name": "value",
          "type": "string"
        },
        {
          "indexed": true,
          "internalType": "uint256",
          "name": "id",
          "type": "uint256"
        }
      ],
      "name": "URI",
      "type": "event"
    },
    {
      "inputs": [
        {
          "internalType": "address",
          "name": "account",
          "type": "address"
        },
        {
          "internalType": "uint256",
          "name": "id",
          "type": "uint256"
        }
      ],
      "name": "balanceOf",
      "outputs": [
        {
          "internalType": "uint256",
          "name": "",
          "type": "uint256"
        }
      ],
      "stateMutability": "view",
      "type": "function"
    },
    {
      "inputs": [
        {
          "internalType": "address[]",
          "name": "accounts",
          "type": "address[]"
        },
        {
          "internalType": "uint256[]",
          "name": "ids",
          "type": "uint256[]"
        }
      ],
      "name": "balanceOfBatch",
      "outputs": [
        {
          "internalType": "uint256[]",
          "name": "",
          "type": "uint256[]"
        }
      ],
      "stateMutability": "view",
      "type": "function"
    },
    {
      "inputs": [],
      "name": "baseURI",
      "outputs": [
        {
          "internalType": "string",
          "name": "",
          "type": "string"
        }
      ],
      "stateMutability": "view",
      "type": "function"
    },
    {
      "inputs": [
        {
          "internalType": "address",
          "name": "account",
          "type": "address"
        },
        {
          "internalType": "uint256",
          "name": "id",
          "type": "uint256"
        },
        {
          "internalType": "uint256",
          "name": "value",
          "type": "uint256"
        }
      ],
      "name": "burn",
      "outputs": [],
      "stateMutability": "nonpayable",
      "type": "function"
    },
    {
      "inputs": [
        {
          "internalType": "address",
          "name": "account",
          "type": "address"
        },
        {
          "internalType": "uint256[]",
          "name": "ids",
          "type": "uint256[]"
        },
        {
          "internalType": "uint256[]",
          "name": "values",
          "type": "uint256[]"
        }
      ],
      "name": "burnBatch",
      "outputs": [],
      "stateMutability": "nonpayable",
      "type": "function"
    },
    {
      "inputs": [],
      "name": "defaultMaxSupply",
      "outputs": [
        {
          "internalType": "uint256",
          "name": "",
          "type": "uint256"
        }
      ],
      "stateMutability": "view",
      "type": "function"
    },
    {
      "inputs": [
        {
          "internalType": "uint256",
          "name": "id",
          "type": "uint256"
        }
      ],
      "name": "exists",
      "outputs": [
        {
          "internalType": "bool",
          "name": "",
          "type": "bool"
        }
      ],
      "stateMutability": "view",
      "type": "function"
    },
    {
      "inputs": [
        {
          "internalType": "address",
          "name": "account",
          "type": "address"
        },
        {
          "internalType": "address",
          "name": "operator",
          "type": "address"
        }
      ],
      "name": "isApprovedForAll",
      "outputs": [
        {
          "internalType": "bool",
          "name": "",
          "type": "bool"
        }
      ],
      "stateMutability": "view",
      "type": "function"
    },
    {
      "inputs": [
        {
          "internalType": "uint256",
          "name": "",
          "type": "uint256"
        }
      ],
      "name": "maxSupplies",
      "outputs": [
        {
          "internalType": "uint256",
          "name": "",
          "type": "uint256"
        }
      ],
      "stateMutability": "view",
      "type": "function"
    },
    {
      "inputs": [
        {
          "internalType": "address",
          "name": "account",
          "type": "address"
        },
        {
          "internalType": "uint256",
          "name": "id",
          "type": "uint256"
        },
        {
          "internalType": "uint256",
          "name": "amount",
          "type": "uint256"
        },
        {
          "internalType": "bytes",
          "name": "data",
          "type": "bytes"
        }
      ],
      "name": "mint",
      "outputs": [],
      "stateMutability": "nonpayable",
      "type": "function"
    },
    {
      "inputs": [],
      "name": "modulo",
      "outputs": [
        {
          "internalType": "uint256",
          "name": "",
          "type": "uint256"
        }
      ],
      "stateMutability": "view",
      "type": "function"
    },
    {
      "inputs": [],
      "name": "owner",
      "outputs": [
        {
          "internalType": "address",
          "name": "",
          "type": "address"
        }
      ],
      "stateMutability": "view",
      "type": "function"
    },
    {
      "inputs": [],
      "name": "renounceOwnership",
      "outputs": [],
      "stateMutability": "nonpayable",
      "type": "function"
    },
    {
      "inputs": [
        {
          "internalType": "uint256",
          "name": "",
          "type": "uint256"
        },
        {
          "internalType": "uint256",
          "name": "_value",
          "type": "uint256"
        }
      ],
      "name": "royaltyInfo",
      "outputs": [
        {
          "internalType": "address",
          "name": "_receiver",
          "type": "address"
        },
        {
          "internalType": "uint256",
          "name": "_royaltyAmount",
          "type": "uint256"
        }
      ],
      "stateMutability": "view",
      "type": "function"
    },
    {
      "inputs": [],
      "name": "royaltyReceiver",
      "outputs": [
        {
          "internalType": "address",
          "name": "",
          "type": "address"
        }
      ],
      "stateMutability": "view",
      "type": "function"
    },
    {
      "inputs": [
        {
          "internalType": "address",
          "name": "from",
          "type": "address"
        },
        {
          "internalType": "address",
          "name": "to",
          "type": "address"
        },
        {
          "internalType": "uint256[]",
          "name": "ids",
          "type": "uint256[]"
        },
        {
          "internalType": "uint256[]",
          "name": "amounts",
          "type": "uint256[]"
        },
        {
          "internalType": "bytes",
          "name": "data",
          "type": "bytes"
        }
      ],
      "name": "safeBatchTransferFrom",
      "outputs": [],
      "stateMutability": "nonpayable",
      "type": "function"
    },
    {
      "inputs": [
        {
          "internalType": "address",
          "name": "from",
          "type": "address"
        },
        {
          "internalType": "address",
          "name": "to",
          "type": "address"
        },
        {
          "internalType": "uint256",
          "name": "id",
          "type": "uint256"
        },
        {
          "internalType": "uint256",
          "name": "amount",
          "type": "uint256"
        },
        {
          "internalType": "bytes",
          "name": "data",
          "type": "bytes"
        }
      ],
      "name": "safeTransferFrom",
      "outputs": [],
      "stateMutability": "nonpayable",
      "type": "function"
    },
    {
      "inputs": [],
      "name": "secondarySaleRoyalty",
      "outputs": [
        {
          "internalType": "uint256",
          "name": "",
          "type": "uint256"
        }
      ],
      "stateMutability": "view",
      "type": "function"
    },
    {
      "inputs": [
        {
          "internalType": "address",
          "name": "operator",
          "type": "address"
        },
        {
          "internalType": "bool",
          "name": "approved",
          "type": "bool"
        }
      ],
      "name": "setApprovalForAll",
      "outputs": [],
      "stateMutability": "nonpayable",
      "type": "function"
    },
    {
      "inputs": [
        {
          "internalType": "string",
          "name": "uri",
          "type": "string"
        }
      ],
      "name": "setBaseURI",
      "outputs": [],
      "stateMutability": "nonpayable",
      "type": "function"
    },
    {
      "inputs": [
        {
          "internalType": "uint256",
          "name": "id",
          "type": "uint256"
        },
        {
          "internalType": "uint256",
          "name": "maxSupply",
          "type": "uint256"
        }
      ],
      "name": "setMaxSupply",
      "outputs": [],
      "stateMutability": "nonpayable",
      "type": "function"
    },
    {
      "inputs": [
        {
          "internalType": "uint256",
          "name": "id",
          "type": "uint256"
        },
        {
          "internalType": "string",
          "name": "uri",
          "type": "string"
        }
      ],
      "name": "setTokenURI",
      "outputs": [],
      "stateMutability": "nonpayable",
      "type": "function"
    },
    {
      "inputs": [
        {
          "internalType": "bytes4",
          "name": "interfaceId",
          "type": "bytes4"
        }
      ],
      "name": "supportsInterface",
      "outputs": [
        {
          "internalType": "bool",
          "name": "",
          "type": "bool"
        }
      ],
      "stateMutability": "view",
      "type": "function"
    },
    {
      "inputs": [
        {
          "internalType": "uint256",
          "name": "",
          "type": "uint256"
        }
      ],
      "name": "tokenURIs",
      "outputs": [
        {
          "internalType": "string",
          "name": "",
          "type": "string"
        }
      ],
      "stateMutability": "view",
      "type": "function"
    },
    {
      "inputs": [
        {
          "internalType": "uint256",
          "name": "id",
          "type": "uint256"
        }
      ],
      "name": "totalSupply",
      "outputs": [
        {
          "internalType": "uint256",
          "name": "",
          "type": "uint256"
        }
      ],
      "stateMutability": "view",
      "type": "function"
    },
    {
      "inputs": [
        {
          "internalType": "address",
          "name": "newOwner",
          "type": "address"
        }
      ],
      "name": "transferOwnership",
      "outputs": [],
      "stateMutability": "nonpayable",
      "type": "function"
    },
    {
      "inputs": [
        {
          "internalType": "uint256",
          "name": "id",
          "type": "uint256"
        }
      ],
      "name": "uri",
      "outputs": [
        {
          "internalType": "string",
          "name": "",
          "type": "string"
        }
      ],
      "stateMutability": "view",
      "type": "function"
    }
  ],
  "transactionHash": "0x5d55f3d281eeb10b2c6adabfa00b5815459a1200d02c3f05b139c7a398627cd7",
  "args": [],
  "solcInputHash": "68402bbc15c4a5fe10e971d79c41f555",
  "bytecode": "0x60806040523480156200001157600080fd5b506040518060200160405280600081525062000033816200009b60201b60201c565b506200005462000048620000b060201b60201c565b620000b860201b60201c565b33600760006101000a81548173ffffffffffffffffffffffffffffffffffffffff021916908373ffffffffffffffffffffffffffffffffffffffff160217905550620004df565b8060029081620000ac9190620003f8565b5050565b600033905090565b6000600360009054906101000a900473ffffffffffffffffffffffffffffffffffffffff16905081600360006101000a81548173ffffffffffffffffffffffffffffffffffffffff021916908373ffffffffffffffffffffffffffffffffffffffff1602179055508173ffffffffffffffffffffffffffffffffffffffff168173ffffffffffffffffffffffffffffffffffffffff167f8be0079c531659141344cd1fd0a4f28419497f9722a3daafe3b4186f6b6457e060405160405180910390a35050565b600081519050919050565b7f4e487b7100000000000000000000000000000000000000000000000000000000600052604160045260246000fd5b7f4e487b7100000000000000000000000000000000000000000000000000000000600052602260045260246000fd5b600060028204905060018216806200020057607f821691505b602082108103620002165762000215620001b8565b5b50919050565b60008190508160005260206000209050919050565b60006020601f8301049050919050565b600082821b905092915050565b600060088302620002807fffffffffffffffffffffffffffffffffffffffffffffffffffffffffffffffff8262000241565b6200028c868362000241565b95508019841693508086168417925050509392505050565b6000819050919050565b6000819050919050565b6000620002d9620002d3620002cd84620002a4565b620002ae565b620002a4565b9050919050565b6000819050919050565b620002f583620002b8565b6200030d6200030482620002e0565b8484546200024e565b825550505050565b600090565b6200032462000315565b62000331818484620002ea565b505050565b5b8181101562000359576200034d6000826200031a565b60018101905062000337565b5050565b601f821115620003a85762000372816200021c565b6200037d8462000231565b810160208510156200038d578190505b620003a56200039c8562000231565b83018262000336565b50505b505050565b600082821c905092915050565b6000620003cd60001984600802620003ad565b1980831691505092915050565b6000620003e88383620003ba565b9150826002028217905092915050565b62000403826200017e565b67ffffffffffffffff8111156200041f576200041e62000189565b5b6200042b8254620001e7565b620004388282856200035d565b600060209050601f8311600181146200047057600084156200045b578287015190505b620004678582620003da565b865550620004d7565b601f19841662000480866200021c565b60005b82811015620004aa5784890151825560018201915060208501945060208101905062000483565b86831015620004ca5784890151620004c6601f891682620003ba565b8355505b6001600288020188555050505b505050505050565b6147fe80620004ef6000396000f3fe608060405234801561001057600080fd5b50600436106101a85760003560e01c80636c0360eb116100f95780639fbc871311610097578063e985e9c511610071578063e985e9c5146104e0578063f242432a14610510578063f2fde38b1461052c578063f5298aca14610548576101a8565b80639fbc871314610476578063a22cb46514610494578063bd85b039146104b0576101a8565b8063731133e9116100d3578063731133e9146103ee5780637b3ad6ea1461040a57806387962dcc146104285780638da5cb5b14610458576101a8565b80636c0360eb146103965780636c8b703f146103b4578063715018a6146103e4576101a8565b80632eb2c2d6116101665780634f558e79116101405780634f558e791461031057806355f804b31461034057806363f204d01461035c5780636b20c4541461037a576101a8565b80632eb2c2d6146102a857806337da577c146102c45780634e1273f4146102e0576101a8565b8062fdd58e146101ad57806301ffc9a7146101dd5780630e89341c1461020d578063162094c41461023d57806329745262146102595780632a55205a14610277575b600080fd5b6101c760048036038101906101c29190612a87565b610564565b6040516101d49190612ad6565b60405180910390f35b6101f760048036038101906101f29190612b49565b61062c565b6040516102049190612b91565b60405180910390f35b61022760048036038101906102229190612bac565b6106ee565b6040516102349190612c72565b60405180910390f35b61025760048036038101906102529190612dc9565b610700565b005b6102616107d9565b60405161026e9190612ad6565b60405180910390f35b610291600480360381019061028c9190612e25565b6107e0565b60405161029f929190612e74565b60405180910390f35b6102c260048036038101906102bd9190613006565b61082e565b005b6102de60048036038101906102d99190612e25565b6108cf565b005b6102fa60048036038101906102f59190613198565b6109bd565b60405161030791906132ce565b60405180910390f35b61032a60048036038101906103259190612bac565b610ad6565b6040516103379190612b91565b60405180910390f35b61035a600480360381019061035591906132f0565b610aea565b005b610364610b72565b6040516103719190612ad6565b60405180910390f35b610394600480360381019061038f9190613339565b610b79565b005b61039e610c16565b6040516103ab9190612c72565b60405180910390f35b6103ce60048036038101906103c99190612bac565b610c27565b6040516103db9190612c72565b60405180910390f35b6103ec610cc7565b005b610408600480360381019061040391906133c4565b610d4f565b005b610412610e6a565b60405161041f9190612ad6565b60405180910390f35b610442600480360381019061043d9190612bac565b610e70565b60405161044f9190612ad6565b60405180910390f35b610460610e88565b60405161046d9190613447565b60405180910390f35b61047e610eb2565b60405161048b9190613447565b60405180910390f35b6104ae60048036038101906104a9919061348e565b610ed8565b005b6104ca60048036038101906104c59190612bac565b610eee565b6040516104d79190612ad6565b60405180910390f35b6104fa60048036038101906104f591906134ce565b610f0b565b6040516105079190612b91565b60405180910390f35b61052a6004803603810190610525919061350e565b610f9f565b005b610546600480360381019061054191906135a5565b611040565b005b610562600480360381019061055d91906135d2565b611137565b005b60008073ffffffffffffffffffffffffffffffffffffffff168373ffffffffffffffffffffffffffffffffffffffff16036105d4576040517f08c379a00000000000000000000000000000000000000000000000000000000081526004016105cb90613697565b60405180910390fd5b60008083815260200190815260200160002060008473ffffffffffffffffffffffffffffffffffffffff1673ffffffffffffffffffffffffffffffffffffffff16815260200190815260200160002054905092915050565b60006301ffc9a760e01b827bffffffffffffffffffffffffffffffffffffffffffffffffffffffff19161480610687575063d9b67a2660e01b827bffffffffffffffffffffffffffffffffffffffffffffffffffffffff1916145b806106b75750630e89341c60e01b827bffffffffffffffffffffffffffffffffffffffffffffffffffffffff1916145b806106e75750632a55205a60e01b827bffffffffffffffffffffffffffffffffffffffffffffffffffffffff1916145b9050919050565b60606106f9826111d4565b9050919050565b6107086112dd565b73ffffffffffffffffffffffffffffffffffffffff16610726610e88565b73ffffffffffffffffffffffffffffffffffffffff161461077c576040517f08c379a000000000000000000000000000000000000000000000000000000000815260040161077390613703565b60405180910390fd5b8060066000848152602001908152602001600020908161079c919061392f565b50817f6bb7ff708619ba0610cba295a58592e0451dee2622938c8755667688daf3529b826040516107cd9190612c72565b60405180910390a25050565b6298968081565b600080600760009054906101000a900473ffffffffffffffffffffffffffffffffffffffff169150620f4240629896808461081b9190613a5f565b6108259190613a90565b90509250929050565b6108366112dd565b73ffffffffffffffffffffffffffffffffffffffff168573ffffffffffffffffffffffffffffffffffffffff16148061087c575061087b856108766112dd565b610f0b565b5b6108bb576040517f08c379a00000000000000000000000000000000000000000000000000000000081526004016108b290613b5c565b60405180910390fd5b6108c885858585856112e5565b5050505050565b6108d76112dd565b73ffffffffffffffffffffffffffffffffffffffff166108f5610e88565b73ffffffffffffffffffffffffffffffffffffffff161461094b576040517f08c379a000000000000000000000000000000000000000000000000000000000815260040161094290613703565b60405180910390fd5b60006005600084815260200190815260200160002054146109a1576040517f08c379a000000000000000000000000000000000000000000000000000000000815260040161099890613bc8565b60405180910390fd5b8060056000848152602001908152602001600020819055505050565b60608151835114610a03576040517f08c379a00000000000000000000000000000000000000000000000000000000081526004016109fa90613c5a565b60405180910390fd5b6000835167ffffffffffffffff811115610a2057610a1f612c9e565b5b604051908082528060200260200182016040528015610a4e5781602001602082028036833780820191505090505b50905060005b8451811015610acb57610a9b858281518110610a7357610a72613c7a565b5b6020026020010151858381518110610a8e57610a8d613c7a565b5b6020026020010151610564565b828281518110610aae57610aad613c7a565b5b60200260200101818152505080610ac490613ca9565b9050610a54565b508091505092915050565b600080610ae283610eee565b119050919050565b610af26112dd565b73ffffffffffffffffffffffffffffffffffffffff16610b10610e88565b73ffffffffffffffffffffffffffffffffffffffff1614610b66576040517f08c379a0000000000000000000000000000000000000000000000000000000008152600401610b5d90613703565b60405180910390fd5b610b6f81611606565b50565b620f424081565b610b816112dd565b73ffffffffffffffffffffffffffffffffffffffff168373ffffffffffffffffffffffffffffffffffffffff161480610bc75750610bc683610bc16112dd565b610f0b565b5b610c06576040517f08c379a0000000000000000000000000000000000000000000000000000000008152600401610bfd90613d63565b60405180910390fd5b610c11838383611619565b505050565b6060610c2260006118e7565b905090565b60066020528060005260406000206000915090508054610c4690613752565b80601f0160208091040260200160405190810160405280929190818152602001828054610c7290613752565b8015610cbf5780601f10610c9457610100808354040283529160200191610cbf565b820191906000526020600020905b815481529060010190602001808311610ca257829003601f168201915b505050505081565b610ccf6112dd565b73ffffffffffffffffffffffffffffffffffffffff16610ced610e88565b73ffffffffffffffffffffffffffffffffffffffff1614610d43576040517f08c379a0000000000000000000000000000000000000000000000000000000008152600401610d3a90613703565b60405180910390fd5b610d4d600061197b565b565b610d576112dd565b73ffffffffffffffffffffffffffffffffffffffff16610d75610e88565b73ffffffffffffffffffffffffffffffffffffffff1614610dcb576040517f08c379a0000000000000000000000000000000000000000000000000000000008152600401610dc290613703565b60405180910390fd5b6000600560008581526020019081526020016000205411610dee576103e8610e03565b60056000848152602001908152602001600020545b82610e0d85610eee565b610e179190613d83565b1115610e58576040517f08c379a0000000000000000000000000000000000000000000000000000000008152600401610e4f90613e25565b60405180910390fd5b610e6484848484611a41565b50505050565b6103e881565b60056020528060005260406000206000915090505481565b6000600360009054906101000a900473ffffffffffffffffffffffffffffffffffffffff16905090565b600760009054906101000a900473ffffffffffffffffffffffffffffffffffffffff1681565b610eea610ee36112dd565b8383611bf1565b5050565b600060046000838152602001908152602001600020549050919050565b6000600160008473ffffffffffffffffffffffffffffffffffffffff1673ffffffffffffffffffffffffffffffffffffffff16815260200190815260200160002060008373ffffffffffffffffffffffffffffffffffffffff1673ffffffffffffffffffffffffffffffffffffffff16815260200190815260200160002060009054906101000a900460ff16905092915050565b610fa76112dd565b73ffffffffffffffffffffffffffffffffffffffff168573ffffffffffffffffffffffffffffffffffffffff161480610fed5750610fec85610fe76112dd565b610f0b565b5b61102c576040517f08c379a000000000000000000000000000000000000000000000000000000000815260040161102390613d63565b60405180910390fd5b6110398585858585611d5d565b5050505050565b6110486112dd565b73ffffffffffffffffffffffffffffffffffffffff16611066610e88565b73ffffffffffffffffffffffffffffffffffffffff16146110bc576040517f08c379a00000000000000000000000000000000000000000000000000000000081526004016110b390613703565b60405180910390fd5b600073ffffffffffffffffffffffffffffffffffffffff168173ffffffffffffffffffffffffffffffffffffffff160361112b576040517f08c379a000000000000000000000000000000000000000000000000000000000815260040161112290613eb7565b60405180910390fd5b6111348161197b565b50565b61113f6112dd565b73ffffffffffffffffffffffffffffffffffffffff168373ffffffffffffffffffffffffffffffffffffffff16148061118557506111848361117f6112dd565b610f0b565b5b6111c4576040517f08c379a00000000000000000000000000000000000000000000000000000000081526004016111bb90613d63565b60405180910390fd5b6111cf838383611ff8565b505050565b606060006006600084815260200190815260200160002080546111f690613752565b80601f016020809104026020016040519081016040528092919081815260200182805461122290613752565b801561126f5780601f106112445761010080835404028352916020019161126f565b820191906000526020600020905b81548152906001019060200180831161125257829003601f168201915b505050505090506000611280610c16565b905060008151036112955781925050506112d8565b6000825111156112a95781925050506112d8565b806112b38561223e565b6040516020016112c4929190613f13565b604051602081830303815290604052925050505b919050565b600033905090565b8151835114611329576040517f08c379a000000000000000000000000000000000000000000000000000000000815260040161132090613fa9565b60405180910390fd5b600073ffffffffffffffffffffffffffffffffffffffff168473ffffffffffffffffffffffffffffffffffffffff1603611398576040517f08c379a000000000000000000000000000000000000000000000000000000000815260040161138f9061403b565b60405180910390fd5b60006113a26112dd565b90506113b281878787878761239e565b60005b84518110156115635760008582815181106113d3576113d2613c7a565b5b6020026020010151905060008583815181106113f2576113f1613c7a565b5b60200260200101519050600080600084815260200190815260200160002060008b73ffffffffffffffffffffffffffffffffffffffff1673ffffffffffffffffffffffffffffffffffffffff16815260200190815260200160002054905081811015611493576040517f08c379a000000000000000000000000000000000000000000000000000000000815260040161148a906140cd565b60405180910390fd5b81810360008085815260200190815260200160002060008c73ffffffffffffffffffffffffffffffffffffffff1673ffffffffffffffffffffffffffffffffffffffff168152602001908152602001600020819055508160008085815260200190815260200160002060008b73ffffffffffffffffffffffffffffffffffffffff1673ffffffffffffffffffffffffffffffffffffffff16815260200190815260200160002060008282546115489190613d83565b925050819055505050508061155c90613ca9565b90506113b5565b508473ffffffffffffffffffffffffffffffffffffffff168673ffffffffffffffffffffffffffffffffffffffff168273ffffffffffffffffffffffffffffffffffffffff167f4a39dc06d4c0dbc64b70af90fd698a233a518aa5d07e595d983b8c0526c8f7fb87876040516115da9291906140ed565b60405180910390a46115f08187878787876123b4565b6115fe8187878787876123bc565b505050505050565b8060029081611615919061392f565b5050565b600073ffffffffffffffffffffffffffffffffffffffff168373ffffffffffffffffffffffffffffffffffffffff1603611688576040517f08c379a000000000000000000000000000000000000000000000000000000000815260040161167f90614196565b60405180910390fd5b80518251146116cc576040517f08c379a00000000000000000000000000000000000000000000000000000000081526004016116c390613fa9565b60405180910390fd5b60006116d66112dd565b90506116f68185600086866040518060200160405280600081525061239e565b60005b835181101561184357600084828151811061171757611716613c7a565b5b60200260200101519050600084838151811061173657611735613c7a565b5b60200260200101519050600080600084815260200190815260200160002060008973ffffffffffffffffffffffffffffffffffffffff1673ffffffffffffffffffffffffffffffffffffffff168152602001908152602001600020549050818110156117d7576040517f08c379a00000000000000000000000000000000000000000000000000000000081526004016117ce90614228565b60405180910390fd5b81810360008085815260200190815260200160002060008a73ffffffffffffffffffffffffffffffffffffffff1673ffffffffffffffffffffffffffffffffffffffff16815260200190815260200160002081905550505050808061183b90613ca9565b9150506116f9565b50600073ffffffffffffffffffffffffffffffffffffffff168473ffffffffffffffffffffffffffffffffffffffff168273ffffffffffffffffffffffffffffffffffffffff167f4a39dc06d4c0dbc64b70af90fd698a233a518aa5d07e595d983b8c0526c8f7fb86866040516118bb9291906140ed565b60405180910390a46118e1818560008686604051806020016040528060008152506123b4565b50505050565b6060600280546118f690613752565b80601f016020809104026020016040519081016040528092919081815260200182805461192290613752565b801561196f5780601f106119445761010080835404028352916020019161196f565b820191906000526020600020905b81548152906001019060200180831161195257829003601f168201915b50505050509050919050565b6000600360009054906101000a900473ffffffffffffffffffffffffffffffffffffffff16905081600360006101000a81548173ffffffffffffffffffffffffffffffffffffffff021916908373ffffffffffffffffffffffffffffffffffffffff1602179055508173ffffffffffffffffffffffffffffffffffffffff168173ffffffffffffffffffffffffffffffffffffffff167f8be0079c531659141344cd1fd0a4f28419497f9722a3daafe3b4186f6b6457e060405160405180910390a35050565b600073ffffffffffffffffffffffffffffffffffffffff168473ffffffffffffffffffffffffffffffffffffffff1603611ab0576040517f08c379a0000000000000000000000000000000000000000000000000000000008152600401611aa7906142ba565b60405180910390fd5b6000611aba6112dd565b90506000611ac785612593565b90506000611ad485612593565b9050611ae58360008985858961239e565b8460008088815260200190815260200160002060008973ffffffffffffffffffffffffffffffffffffffff1673ffffffffffffffffffffffffffffffffffffffff1681526020019081526020016000206000828254611b449190613d83565b925050819055508673ffffffffffffffffffffffffffffffffffffffff16600073ffffffffffffffffffffffffffffffffffffffff168473ffffffffffffffffffffffffffffffffffffffff167fc3d58168c5ae7397731d063d5bbf3d657854427343f4c083240f7aacaa2d0f628989604051611bc29291906142da565b60405180910390a4611bd9836000898585896123b4565b611be88360008989898961260d565b50505050505050565b8173ffffffffffffffffffffffffffffffffffffffff168373ffffffffffffffffffffffffffffffffffffffff1603611c5f576040517f08c379a0000000000000000000000000000000000000000000000000000000008152600401611c5690614375565b60405180910390fd5b80600160008573ffffffffffffffffffffffffffffffffffffffff1673ffffffffffffffffffffffffffffffffffffffff16815260200190815260200160002060008473ffffffffffffffffffffffffffffffffffffffff1673ffffffffffffffffffffffffffffffffffffffff16815260200190815260200160002060006101000a81548160ff0219169083151502179055508173ffffffffffffffffffffffffffffffffffffffff168373ffffffffffffffffffffffffffffffffffffffff167f17307eab39ab6107e8899845ad3d59bd9653f200f220920489ca2b5937696c3183604051611d509190612b91565b60405180910390a3505050565b600073ffffffffffffffffffffffffffffffffffffffff168473ffffffffffffffffffffffffffffffffffffffff1603611dcc576040517f08c379a0000000000000000000000000000000000000000000000000000000008152600401611dc39061403b565b60405180910390fd5b6000611dd66112dd565b90506000611de385612593565b90506000611df085612593565b9050611e0083898985858961239e565b600080600088815260200190815260200160002060008a73ffffffffffffffffffffffffffffffffffffffff1673ffffffffffffffffffffffffffffffffffffffff16815260200190815260200160002054905085811015611e97576040517f08c379a0000000000000000000000000000000000000000000000000000000008152600401611e8e906140cd565b60405180910390fd5b85810360008089815260200190815260200160002060008b73ffffffffffffffffffffffffffffffffffffffff1673ffffffffffffffffffffffffffffffffffffffff168152602001908152602001600020819055508560008089815260200190815260200160002060008a73ffffffffffffffffffffffffffffffffffffffff1673ffffffffffffffffffffffffffffffffffffffff1681526020019081526020016000206000828254611f4c9190613d83565b925050819055508773ffffffffffffffffffffffffffffffffffffffff168973ffffffffffffffffffffffffffffffffffffffff168573ffffffffffffffffffffffffffffffffffffffff167fc3d58168c5ae7397731d063d5bbf3d657854427343f4c083240f7aacaa2d0f628a8a604051611fc99291906142da565b60405180910390a4611fdf848a8a86868a6123b4565b611fed848a8a8a8a8a61260d565b505050505050505050565b600073ffffffffffffffffffffffffffffffffffffffff168373ffffffffffffffffffffffffffffffffffffffff1603612067576040517f08c379a000000000000000000000000000000000000000000000000000000000815260040161205e90614196565b60405180910390fd5b60006120716112dd565b9050600061207e84612593565b9050600061208b84612593565b90506120ab8387600085856040518060200160405280600081525061239e565b600080600087815260200190815260200160002060008873ffffffffffffffffffffffffffffffffffffffff1673ffffffffffffffffffffffffffffffffffffffff16815260200190815260200160002054905084811015612142576040517f08c379a000000000000000000000000000000000000000000000000000000000815260040161213990614228565b60405180910390fd5b84810360008088815260200190815260200160002060008973ffffffffffffffffffffffffffffffffffffffff1673ffffffffffffffffffffffffffffffffffffffff16815260200190815260200160002081905550600073ffffffffffffffffffffffffffffffffffffffff168773ffffffffffffffffffffffffffffffffffffffff168573ffffffffffffffffffffffffffffffffffffffff167fc3d58168c5ae7397731d063d5bbf3d657854427343f4c083240f7aacaa2d0f62898960405161220f9291906142da565b60405180910390a4612235848860008686604051806020016040528060008152506123b4565b50505050505050565b606060008203612285576040518060400160405280600181526020017f30000000000000000000000000000000000000000000000000000000000000008152509050612399565b600082905060005b600082146122b75780806122a090613ca9565b915050600a826122b09190613a5f565b915061228d565b60008167ffffffffffffffff8111156122d3576122d2612c9e565b5b6040519080825280601f01601f1916602001820160405280156123055781602001600182028036833780820191505090505b5090505b600085146123925760018261231e9190614395565b9150600a8561232d91906143c9565b60306123399190613d83565b60f81b81838151811061234f5761234e613c7a565b5b60200101907effffffffffffffffffffffffffffffffffffffffffffffffffffffffffffff1916908160001a905350600a8561238b9190613a5f565b9450612309565b8093505050505b919050565b6123ac8686868686866127e4565b505050505050565b505050505050565b6123db8473ffffffffffffffffffffffffffffffffffffffff166129b4565b1561258b578373ffffffffffffffffffffffffffffffffffffffff1663bc197c8187878686866040518663ffffffff1660e01b815260040161242195949392919061444f565b6020604051808303816000875af192505050801561245d57506040513d601f19601f8201168201806040525081019061245a91906144cc565b60015b61250257612469614506565b806308c379a0036124c5575061247d614528565b8061248857506124c7565b806040517f08c379a00000000000000000000000000000000000000000000000000000000081526004016124bc9190612c72565b60405180910390fd5b505b6040517f08c379a00000000000000000000000000000000000000000000000000000000081526004016124f99061462a565b60405180910390fd5b63bc197c8160e01b7bffffffffffffffffffffffffffffffffffffffffffffffffffffffff1916817bffffffffffffffffffffffffffffffffffffffffffffffffffffffff191614612589576040517f08c379a0000000000000000000000000000000000000000000000000000000008152600401612580906146bc565b60405180910390fd5b505b505050505050565b60606000600167ffffffffffffffff8111156125b2576125b1612c9e565b5b6040519080825280602002602001820160405280156125e05781602001602082028036833780820191505090505b50905082816000815181106125f8576125f7613c7a565b5b60200260200101818152505080915050919050565b61262c8473ffffffffffffffffffffffffffffffffffffffff166129b4565b156127dc578373ffffffffffffffffffffffffffffffffffffffff1663f23a6e6187878686866040518663ffffffff1660e01b81526004016126729594939291906146dc565b6020604051808303816000875af19250505080156126ae57506040513d601f19601f820116820180604052508101906126ab91906144cc565b60015b612753576126ba614506565b806308c379a00361271657506126ce614528565b806126d95750612718565b806040517f08c379a000000000000000000000000000000000000000000000000000000000815260040161270d9190612c72565b60405180910390fd5b505b6040517f08c379a000000000000000000000000000000000000000000000000000000000815260040161274a9061462a565b60405180910390fd5b63f23a6e6160e01b7bffffffffffffffffffffffffffffffffffffffffffffffffffffffff1916817bffffffffffffffffffffffffffffffffffffffffffffffffffffffff1916146127da576040517f08c379a00000000000000000000000000000000000000000000000000000000081526004016127d1906146bc565b60405180910390fd5b505b505050505050565b6127f28686868686866129d7565b600073ffffffffffffffffffffffffffffffffffffffff168573ffffffffffffffffffffffffffffffffffffffff16036128a35760005b83518110156128a15782818151811061284557612844613c7a565b5b60200260200101516004600086848151811061286457612863613c7a565b5b6020026020010151815260200190815260200160002060008282546128899190613d83565b925050819055508061289a90613ca9565b9050612829565b505b600073ffffffffffffffffffffffffffffffffffffffff168473ffffffffffffffffffffffffffffffffffffffff16036129ac5760005b83518110156129aa5760008482815181106128f8576128f7613c7a565b5b60200260200101519050600084838151811061291757612916613c7a565b5b602002602001015190506000600460008481526020019081526020016000205490508181101561297c576040517f08c379a0000000000000000000000000000000000000000000000000000000008152600401612973906147a8565b60405180910390fd5b8181036004600085815260200190815260200160002081905550505050806129a390613ca9565b90506128da565b505b505050505050565b6000808273ffffffffffffffffffffffffffffffffffffffff163b119050919050565b505050505050565b6000604051905090565b600080fd5b600080fd5b600073ffffffffffffffffffffffffffffffffffffffff82169050919050565b6000612a1e826129f3565b9050919050565b612a2e81612a13565b8114612a3957600080fd5b50565b600081359050612a4b81612a25565b92915050565b6000819050919050565b612a6481612a51565b8114612a6f57600080fd5b50565b600081359050612a8181612a5b565b92915050565b60008060408385031215612a9e57612a9d6129e9565b5b6000612aac85828601612a3c565b9250506020612abd85828601612a72565b9150509250929050565b612ad081612a51565b82525050565b6000602082019050612aeb6000830184612ac7565b92915050565b60007fffffffff0000000000000000000000000000000000000000000000000000000082169050919050565b612b2681612af1565b8114612b3157600080fd5b50565b600081359050612b4381612b1d565b92915050565b600060208284031215612b5f57612b5e6129e9565b5b6000612b6d84828501612b34565b91505092915050565b60008115159050919050565b612b8b81612b76565b82525050565b6000602082019050612ba66000830184612b82565b92915050565b600060208284031215612bc257612bc16129e9565b5b6000612bd084828501612a72565b91505092915050565b600081519050919050565b600082825260208201905092915050565b60005b83811015612c13578082015181840152602081019050612bf8565b83811115612c22576000848401525b50505050565b6000601f19601f8301169050919050565b6000612c4482612bd9565b612c4e8185612be4565b9350612c5e818560208601612bf5565b612c6781612c28565b840191505092915050565b60006020820190508181036000830152612c8c8184612c39565b905092915050565b600080fd5b600080fd5b7f4e487b7100000000000000000000000000000000000000000000000000000000600052604160045260246000fd5b612cd682612c28565b810181811067ffffffffffffffff82111715612cf557612cf4612c9e565b5b80604052505050565b6000612d086129df565b9050612d148282612ccd565b919050565b600067ffffffffffffffff821115612d3457612d33612c9e565b5b612d3d82612c28565b9050602081019050919050565b82818337600083830152505050565b6000612d6c612d6784612d19565b612cfe565b905082815260208101848484011115612d8857612d87612c99565b5b612d93848285612d4a565b509392505050565b600082601f830112612db057612daf612c94565b5b8135612dc0848260208601612d59565b91505092915050565b60008060408385031215612de057612ddf6129e9565b5b6000612dee85828601612a72565b925050602083013567ffffffffffffffff811115612e0f57612e0e6129ee565b5b612e1b85828601612d9b565b9150509250929050565b60008060408385031215612e3c57612e3b6129e9565b5b6000612e4a85828601612a72565b9250506020612e5b85828601612a72565b9150509250929050565b612e6e81612a13565b82525050565b6000604082019050612e896000830185612e65565b612e966020830184612ac7565b9392505050565b600067ffffffffffffffff821115612eb857612eb7612c9e565b5b602082029050602081019050919050565b600080fd5b6000612ee1612edc84612e9d565b612cfe565b90508083825260208201905060208402830185811115612f0457612f03612ec9565b5b835b81811015612f2d5780612f198882612a72565b845260208401935050602081019050612f06565b5050509392505050565b600082601f830112612f4c57612f4b612c94565b5b8135612f5c848260208601612ece565b91505092915050565b600067ffffffffffffffff821115612f8057612f7f612c9e565b5b612f8982612c28565b9050602081019050919050565b6000612fa9612fa484612f65565b612cfe565b905082815260208101848484011115612fc557612fc4612c99565b5b612fd0848285612d4a565b509392505050565b600082601f830112612fed57612fec612c94565b5b8135612ffd848260208601612f96565b91505092915050565b600080600080600060a08688031215613022576130216129e9565b5b600061303088828901612a3c565b955050602061304188828901612a3c565b945050604086013567ffffffffffffffff811115613062576130616129ee565b5b61306e88828901612f37565b935050606086013567ffffffffffffffff81111561308f5761308e6129ee565b5b61309b88828901612f37565b925050608086013567ffffffffffffffff8111156130bc576130bb6129ee565b5b6130c888828901612fd8565b9150509295509295909350565b600067ffffffffffffffff8211156130f0576130ef612c9e565b5b602082029050602081019050919050565b600061311461310f846130d5565b612cfe565b9050808382526020820190506020840283018581111561313757613136612ec9565b5b835b81811015613160578061314c8882612a3c565b845260208401935050602081019050613139565b5050509392505050565b600082601f83011261317f5761317e612c94565b5b813561318f848260208601613101565b91505092915050565b600080604083850312156131af576131ae6129e9565b5b600083013567ffffffffffffffff8111156131cd576131cc6129ee565b5b6131d98582860161316a565b925050602083013567ffffffffffffffff8111156131fa576131f96129ee565b5b61320685828601612f37565b9150509250929050565b600081519050919050565b600082825260208201905092915050565b6000819050602082019050919050565b61324581612a51565b82525050565b6000613257838361323c565b60208301905092915050565b6000602082019050919050565b600061327b82613210565b613285818561321b565b93506132908361322c565b8060005b838110156132c15781516132a8888261324b565b97506132b383613263565b925050600181019050613294565b5085935050505092915050565b600060208201905081810360008301526132e88184613270565b905092915050565b600060208284031215613306576133056129e9565b5b600082013567ffffffffffffffff811115613324576133236129ee565b5b61333084828501612d9b565b91505092915050565b600080600060608486031215613352576133516129e9565b5b600061336086828701612a3c565b935050602084013567ffffffffffffffff811115613381576133806129ee565b5b61338d86828701612f37565b925050604084013567ffffffffffffffff8111156133ae576133ad6129ee565b5b6133ba86828701612f37565b9150509250925092565b600080600080608085870312156133de576133dd6129e9565b5b60006133ec87828801612a3c565b94505060206133fd87828801612a72565b935050604061340e87828801612a72565b925050606085013567ffffffffffffffff81111561342f5761342e6129ee565b5b61343b87828801612fd8565b91505092959194509250565b600060208201905061345c6000830184612e65565b92915050565b61346b81612b76565b811461347657600080fd5b50565b60008135905061348881613462565b92915050565b600080604083850312156134a5576134a46129e9565b5b60006134b385828601612a3c565b92505060206134c485828601613479565b9150509250929050565b600080604083850312156134e5576134e46129e9565b5b60006134f385828601612a3c565b925050602061350485828601612a3c565b9150509250929050565b600080600080600060a0868803121561352a576135296129e9565b5b600061353888828901612a3c565b955050602061354988828901612a3c565b945050604061355a88828901612a72565b935050606061356b88828901612a72565b925050608086013567ffffffffffffffff81111561358c5761358b6129ee565b5b61359888828901612fd8565b9150509295509295909350565b6000602082840312156135bb576135ba6129e9565b5b60006135c984828501612a3c565b91505092915050565b6000806000606084860312156135eb576135ea6129e9565b5b60006135f986828701612a3c565b935050602061360a86828701612a72565b925050604061361b86828701612a72565b9150509250925092565b7f455243313135353a2062616c616e636520717565727920666f7220746865207a60008201527f65726f2061646472657373000000000000000000000000000000000000000000602082015250565b6000613681602b83612be4565b915061368c82613625565b604082019050919050565b600060208201905081810360008301526136b081613674565b9050919050565b7f4f776e61626c653a2063616c6c6572206973206e6f7420746865206f776e6572600082015250565b60006136ed602083612be4565b91506136f8826136b7565b602082019050919050565b6000602082019050818103600083015261371c816136e0565b9050919050565b7f4e487b7100000000000000000000000000000000000000000000000000000000600052602260045260246000fd5b6000600282049050600182168061376a57607f821691505b60208210810361377d5761377c613723565b5b50919050565b60008190508160005260206000209050919050565b60006020601f8301049050919050565b600082821b905092915050565b6000600883026137e57fffffffffffffffffffffffffffffffffffffffffffffffffffffffffffffffff826137a8565b6137ef86836137a8565b95508019841693508086168417925050509392505050565b6000819050919050565b600061382c61382761382284612a51565b613807565b612a51565b9050919050565b6000819050919050565b61384683613811565b61385a61385282613833565b8484546137b5565b825550505050565b600090565b61386f613862565b61387a81848461383d565b505050565b5b8181101561389e57613893600082613867565b600181019050613880565b5050565b601f8211156138e3576138b481613783565b6138bd84613798565b810160208510156138cc578190505b6138e06138d885613798565b83018261387f565b50505b505050565b600082821c905092915050565b6000613906600019846008026138e8565b1980831691505092915050565b600061391f83836138f5565b9150826002028217905092915050565b61393882612bd9565b67ffffffffffffffff81111561395157613950612c9e565b5b61395b8254613752565b6139668282856138a2565b600060209050601f8311600181146139995760008415613987578287015190505b6139918582613913565b8655506139f9565b601f1984166139a786613783565b60005b828110156139cf578489015182556001820191506020850194506020810190506139aa565b868310156139ec57848901516139e8601f8916826138f5565b8355505b6001600288020188555050505b505050505050565b7f4e487b7100000000000000000000000000000000000000000000000000000000600052601260045260246000fd5b7f4e487b7100000000000000000000000000000000000000000000000000000000600052601160045260246000fd5b6000613a6a82612a51565b9150613a7583612a51565b925082613a8557613a84613a01565b5b828204905092915050565b6000613a9b82612a51565b9150613aa683612a51565b9250817fffffffffffffffffffffffffffffffffffffffffffffffffffffffffffffffff0483118215151615613adf57613ade613a30565b5b828202905092915050565b7f455243313135353a207472616e736665722063616c6c6572206973206e6f742060008201527f6f776e6572206e6f7220617070726f7665640000000000000000000000000000602082015250565b6000613b46603283612be4565b9150613b5182613aea565b604082019050919050565b60006020820190508181036000830152613b7581613b39565b9050919050565b7f416c726561647920736574000000000000000000000000000000000000000000600082015250565b6000613bb2600b83612be4565b9150613bbd82613b7c565b602082019050919050565b60006020820190508181036000830152613be181613ba5565b9050919050565b7f455243313135353a206163636f756e747320616e6420696473206c656e67746860008201527f206d69736d617463680000000000000000000000000000000000000000000000602082015250565b6000613c44602983612be4565b9150613c4f82613be8565b604082019050919050565b60006020820190508181036000830152613c7381613c37565b9050919050565b7f4e487b7100000000000000000000000000000000000000000000000000000000600052603260045260246000fd5b6000613cb482612a51565b91507fffffffffffffffffffffffffffffffffffffffffffffffffffffffffffffffff8203613ce657613ce5613a30565b5b600182019050919050565b7f455243313135353a2063616c6c6572206973206e6f74206f776e6572206e6f7260008201527f20617070726f7665640000000000000000000000000000000000000000000000602082015250565b6000613d4d602983612be4565b9150613d5882613cf1565b604082019050919050565b60006020820190508181036000830152613d7c81613d40565b9050919050565b6000613d8e82612a51565b9150613d9983612a51565b9250827fffffffffffffffffffffffffffffffffffffffffffffffffffffffffffffffff03821115613dce57613dcd613a30565b5b828201905092915050565b7f457863656564206d617820737570706c79000000000000000000000000000000600082015250565b6000613e0f601183612be4565b9150613e1a82613dd9565b602082019050919050565b60006020820190508181036000830152613e3e81613e02565b9050919050565b7f4f776e61626c653a206e6577206f776e657220697320746865207a65726f206160008201527f6464726573730000000000000000000000000000000000000000000000000000602082015250565b6000613ea1602683612be4565b9150613eac82613e45565b604082019050919050565b60006020820190508181036000830152613ed081613e94565b9050919050565b600081905092915050565b6000613eed82612bd9565b613ef78185613ed7565b9350613f07818560208601612bf5565b80840191505092915050565b6000613f1f8285613ee2565b9150613f2b8284613ee2565b91508190509392505050565b7f455243313135353a2069647320616e6420616d6f756e7473206c656e6774682060008201527f6d69736d61746368000000000000000000000000000000000000000000000000602082015250565b6000613f93602883612be4565b9150613f9e82613f37565b604082019050919050565b60006020820190508181036000830152613fc281613f86565b9050919050565b7f455243313135353a207472616e7366657220746f20746865207a65726f20616460008201527f6472657373000000000000000000000000000000000000000000000000000000602082015250565b6000614025602583612be4565b915061403082613fc9565b604082019050919050565b6000602082019050818103600083015261405481614018565b9050919050565b7f455243313135353a20696e73756666696369656e742062616c616e636520666f60008201527f72207472616e7366657200000000000000000000000000000000000000000000602082015250565b60006140b7602a83612be4565b91506140c28261405b565b604082019050919050565b600060208201905081810360008301526140e6816140aa565b9050919050565b600060408201905081810360008301526141078185613270565b9050818103602083015261411b8184613270565b90509392505050565b7f455243313135353a206275726e2066726f6d20746865207a65726f206164647260008201527f6573730000000000000000000000000000000000000000000000000000000000602082015250565b6000614180602383612be4565b915061418b82614124565b604082019050919050565b600060208201905081810360008301526141af81614173565b9050919050565b7f455243313135353a206275726e20616d6f756e7420657863656564732062616c60008201527f616e636500000000000000000000000000000000000000000000000000000000602082015250565b6000614212602483612be4565b915061421d826141b6565b604082019050919050565b6000602082019050818103600083015261424181614205565b9050919050565b7f455243313135353a206d696e7420746f20746865207a65726f2061646472657360008201527f7300000000000000000000000000000000000000000000000000000000000000602082015250565b60006142a4602183612be4565b91506142af82614248565b604082019050919050565b600060208201905081810360008301526142d381614297565b9050919050565b60006040820190506142ef6000830185612ac7565b6142fc6020830184612ac7565b9392505050565b7f455243313135353a2073657474696e6720617070726f76616c2073746174757360008201527f20666f722073656c660000000000000000000000000000000000000000000000602082015250565b600061435f602983612be4565b915061436a82614303565b604082019050919050565b6000602082019050818103600083015261438e81614352565b9050919050565b60006143a082612a51565b91506143ab83612a51565b9250828210156143be576143bd613a30565b5b828203905092915050565b60006143d482612a51565b91506143df83612a51565b9250826143ef576143ee613a01565b5b828206905092915050565b600081519050919050565b600082825260208201905092915050565b6000614421826143fa565b61442b8185614405565b935061443b818560208601612bf5565b61444481612c28565b840191505092915050565b600060a0820190506144646000830188612e65565b6144716020830187612e65565b81810360408301526144838186613270565b905081810360608301526144978185613270565b905081810360808301526144ab8184614416565b90509695505050505050565b6000815190506144c681612b1d565b92915050565b6000602082840312156144e2576144e16129e9565b5b60006144f0848285016144b7565b91505092915050565b60008160e01c9050919050565b600060033d11156145255760046000803e6145226000516144f9565b90505b90565b600060443d106145b55761453a6129df565b60043d036004823e80513d602482011167ffffffffffffffff821117156145625750506145b5565b808201805167ffffffffffffffff81111561458057505050506145b5565b80602083010160043d03850181111561459d5750505050506145b5565b6145ac82602001850186612ccd565b82955050505050505b90565b7f455243313135353a207472616e7366657220746f206e6f6e204552433131353560008201527f526563656976657220696d706c656d656e746572000000000000000000000000602082015250565b6000614614603483612be4565b915061461f826145b8565b604082019050919050565b6000602082019050818103600083015261464381614607565b9050919050565b7f455243313135353a204552433131353552656365697665722072656a6563746560008201527f6420746f6b656e73000000000000000000000000000000000000000000000000602082015250565b60006146a6602883612be4565b91506146b18261464a565b604082019050919050565b600060208201905081810360008301526146d581614699565b9050919050565b600060a0820190506146f16000830188612e65565b6146fe6020830187612e65565b61470b6040830186612ac7565b6147186060830185612ac7565b818103608083015261472a8184614416565b90509695505050505050565b7f455243313135353a206275726e20616d6f756e74206578636565647320746f7460008201527f616c537570706c79000000000000000000000000000000000000000000000000602082015250565b6000614792602883612be4565b915061479d82614736565b604082019050919050565b600060208201905081810360008301526147c181614785565b905091905056fea2646970667358221220499de8412a7052c0526aa232ccdebf99e74175b50e110b49dffaf74f0146524f64736f6c634300080f0033",
  "devdoc": {
    "kind": "dev",
    "methods": {
      "balanceOf(address,uint256)": {
        "details": "See {IERC1155-balanceOf}. Requirements: - `account` cannot be the zero address."
      },
      "balanceOfBatch(address[],uint256[])": {
        "details": "See {IERC1155-balanceOfBatch}. Requirements: - `accounts` and `ids` must have the same length."
      },
      "exists(uint256)": {
        "details": "Indicates whether any token exist with a given id, or not."
      },
      "isApprovedForAll(address,address)": {
        "details": "See {IERC1155-isApprovedForAll}."
      },
      "owner()": {
        "details": "Returns the address of the current owner."
      },
      "renounceOwnership()": {
        "details": "Leaves the contract without owner. It will not be possible to call `onlyOwner` functions anymore. Can only be called by the current owner. NOTE: Renouncing ownership will leave the contract without an owner, thereby removing any functionality that is only available to the owner."
      },
      "safeBatchTransferFrom(address,address,uint256[],uint256[],bytes)": {
        "details": "See {IERC1155-safeBatchTransferFrom}."
      },
      "safeTransferFrom(address,address,uint256,uint256,bytes)": {
        "details": "See {IERC1155-safeTransferFrom}."
      },
      "setApprovalForAll(address,bool)": {
        "details": "See {IERC1155-setApprovalForAll}."
      },
      "supportsInterface(bytes4)": {
        "details": "See {IERC165-supportsInterface}."
      },
      "totalSupply(uint256)": {
        "details": "Total amount of tokens in with a given id."
      },
      "transferOwnership(address)": {
        "details": "Transfers ownership of the contract to a new account (`newOwner`). Can only be called by the current owner."
      }
    },
    "version": 1
  },
  "userdoc": {
    "kind": "user",
    "methods": {},
    "version": 1
  },
  "storageLayout": {
    "storage": [
      {
        "astId": 130,
        "contract": "contracts/HappyEncryption.sol:HappyEncryption",
        "label": "_balances",
        "offset": 0,
        "slot": "0",
        "type": "t_mapping(t_uint256,t_mapping(t_address,t_uint256))"
      },
      {
        "astId": 136,
        "contract": "contracts/HappyEncryption.sol:HappyEncryption",
        "label": "_operatorApprovals",
        "offset": 0,
        "slot": "1",
        "type": "t_mapping(t_address,t_mapping(t_address,t_bool))"
      },
      {
        "astId": 138,
        "contract": "contracts/HappyEncryption.sol:HappyEncryption",
        "label": "_uri",
        "offset": 0,
        "slot": "2",
        "type": "t_string_storage"
      },
      {
        "astId": 7,
        "contract": "contracts/HappyEncryption.sol:HappyEncryption",
        "label": "_owner",
        "offset": 0,
        "slot": "3",
        "type": "t_address"
      },
      {
        "astId": 1569,
        "contract": "contracts/HappyEncryption.sol:HappyEncryption",
        "label": "_totalSupply",
        "offset": 0,
        "slot": "4",
        "type": "t_mapping(t_uint256,t_uint256)"
      },
      {
        "astId": 2312,
        "contract": "contracts/HappyEncryption.sol:HappyEncryption",
        "label": "maxSupplies",
        "offset": 0,
        "slot": "5",
        "type": "t_mapping(t_uint256,t_uint256)"
      },
      {
        "astId": 2316,
        "contract": "contracts/HappyEncryption.sol:HappyEncryption",
        "label": "tokenURIs",
        "offset": 0,
        "slot": "6",
        "type": "t_mapping(t_uint256,t_string_storage)"
      },
      {
        "astId": 2318,
        "contract": "contracts/HappyEncryption.sol:HappyEncryption",
        "label": "royaltyReceiver",
        "offset": 0,
        "slot": "7",
        "type": "t_address"
      }
    ],
    "types": {
      "t_address": {
        "encoding": "inplace",
        "label": "address",
        "numberOfBytes": "20"
      },
      "t_bool": {
        "encoding": "inplace",
        "label": "bool",
        "numberOfBytes": "1"
      },
      "t_mapping(t_address,t_bool)": {
        "encoding": "mapping",
        "key": "t_address",
        "label": "mapping(address => bool)",
        "numberOfBytes": "32",
        "value": "t_bool"
      },
      "t_mapping(t_address,t_mapping(t_address,t_bool))": {
        "encoding": "mapping",
        "key": "t_address",
        "label": "mapping(address => mapping(address => bool))",
        "numberOfBytes": "32",
        "value": "t_mapping(t_address,t_bool)"
      },
      "t_mapping(t_address,t_uint256)": {
        "encoding": "mapping",
        "key": "t_address",
        "label": "mapping(address => uint256)",
        "numberOfBytes": "32",
        "value": "t_uint256"
      },
      "t_mapping(t_uint256,t_mapping(t_address,t_uint256))": {
        "encoding": "mapping",
        "key": "t_uint256",
        "label": "mapping(uint256 => mapping(address => uint256))",
        "numberOfBytes": "32",
        "value": "t_mapping(t_address,t_uint256)"
      },
      "t_mapping(t_uint256,t_string_storage)": {
        "encoding": "mapping",
        "key": "t_uint256",
        "label": "mapping(uint256 => string)",
        "numberOfBytes": "32",
        "value": "t_string_storage"
      },
      "t_mapping(t_uint256,t_uint256)": {
        "encoding": "mapping",
        "key": "t_uint256",
        "label": "mapping(uint256 => uint256)",
        "numberOfBytes": "32",
        "value": "t_uint256"
      },
      "t_string_storage": {
        "encoding": "bytes",
        "label": "string",
        "numberOfBytes": "32"
      },
      "t_uint256": {
        "encoding": "inplace",
        "label": "uint256",
        "numberOfBytes": "32"
      }
    }
  }
}